{"abi":[{"type":"constructor","inputs":[],"stateMutability":"nonpayable"},{"type":"function","name":"CLAIM_AMOUNT","inputs":[],"outputs":[{"name":"","type":"uint256","internalType":"uint256"}],"stateMutability":"view"},{"type":"function","name":"TOTAL_SUPPLY","inputs":[],"outputs":[{"name":"","type":"uint256","internalType":"uint256"}],"stateMutability":"view"},{"type":"function","name":"allowance","inputs":[{"name":"owner","type":"address","internalType":"address"},{"name":"spender","type":"address","internalType":"address"}],"outputs":[{"name":"","type":"uint256","internalType":"uint256"}],"stateMutability":"view"},{"type":"function","name":"approve","inputs":[{"name":"spender","type":"address","internalType":"address"},{"name":"value","type":"uint256","internalType":"uint256"}],"outputs":[{"name":"","type":"bool","internalType":"bool"}],"stateMutability":"nonpayable"},{"type":"function","name":"balanceOf","inputs":[{"name":"account","type":"address","internalType":"address"}],"outputs":[{"name":"","type":"uint256","internalType":"uint256"}],"stateMutability":"view"},{"type":"function","name":"claim","inputs":[],"outputs":[],"stateMutability":"nonpayable"},{"type":"function","name":"decimals","inputs":[],"outputs":[{"name":"","type":"uint8","internalType":"uint8"}],"stateMutability":"view"},{"type":"function","name":"hasClaimed","inputs":[{"name":"","type":"address","internalType":"address"}],"outputs":[{"name":"","type":"bool","internalType":"bool"}],"stateMutability":"view"},{"type":"function","name":"name","inputs":[],"outputs":[{"name":"","type":"string","internalType":"string"}],"stateMutability":"view"},{"type":"function","name":"owner","inputs":[],"outputs":[{"name":"","type":"address","internalType":"address"}],"stateMutability":"view"},{"type":"function","name":"renounceOwnership","inputs":[],"outputs":[],"stateMutability":"nonpayable"},{"type":"function","name":"symbol","inputs":[],"outputs":[{"name":"","type":"string","internalType":"string"}],"stateMutability":"view"},{"type":"function","name":"totalSupply","inputs":[],"outputs":[{"name":"","type":"uint256","internalType":"uint256"}],"stateMutability":"view"},{"type":"function","name":"transfer","inputs":[{"name":"to","type":"address","internalType":"address"},{"name":"value","type":"uint256","internalType":"uint256"}],"outputs":[{"name":"","type":"bool","internalType":"bool"}],"stateMutability":"nonpayable"},{"type":"function","name":"transferFrom","inputs":[{"name":"from","type":"address","internalType":"address"},{"name":"to","type":"address","internalType":"address"},{"name":"value","type":"uint256","internalType":"uint256"}],"outputs":[{"name":"","type":"bool","internalType":"bool"}],"stateMutability":"nonpayable"},{"type":"function","name":"transferOwnership","inputs":[{"name":"newOwner","type":"address","internalType":"address"}],"outputs":[],"stateMutability":"nonpayable"},{"type":"event","name":"Approval","inputs":[{"name":"owner","type":"address","indexed":true,"internalType":"address"},{"name":"spender","type":"address","indexed":true,"internalType":"address"},{"name":"value","type":"uint256","indexed":false,"internalType":"uint256"}],"anonymous":false},{"type":"event","name":"OwnershipTransferred","inputs":[{"name":"previousOwner","type":"address","indexed":true,"internalType":"address"},{"name":"newOwner","type":"address","indexed":true,"internalType":"address"}],"anonymous":false},{"type":"event","name":"Transfer","inputs":[{"name":"from","type":"address","indexed":true,"internalType":"address"},{"name":"to","type":"address","indexed":true,"internalType":"address"},{"name":"value","type":"uint256","indexed":false,"internalType":"uint256"}],"anonymous":false},{"type":"error","name":"ERC20InsufficientAllowance","inputs":[{"name":"spender","type":"address","internalType":"address"},{"name":"allowance","type":"uint256","internalType":"uint256"},{"name":"needed","type":"uint256","internalType":"uint256"}]},{"type":"error","name":"ERC20InsufficientBalance","inputs":[{"name":"sender","type":"address","internalType":"address"},{"name":"balance","type":"uint256","internalType":"uint256"},{"name":"needed","type":"uint256","internalType":"uint256"}]},{"type":"error","name":"ERC20InvalidApprover","inputs":[{"name":"approver","type":"address","internalType":"address"}]},{"type":"error","name":"ERC20InvalidReceiver","inputs":[{"name":"receiver","type":"address","internalType":"address"}]},{"type":"error","name":"ERC20InvalidSender","inputs":[{"name":"sender","type":"address","internalType":"address"}]},{"type":"error","name":"ERC20InvalidSpender","inputs":[{"name":"spender","type":"address","internalType":"address"}]},{"type":"error","name":"OwnableInvalidOwner","inputs":[{"name":"owner","type":"address","internalType":"address"}]},{"type":"error","name":"OwnableUnauthorizedAccount","inputs":[{"name":"account","type":"address","internalType":"address"}]}],"bytecode":{"object":"0x608060405234801561000f575f5ffd5b503360405180604001604052806005815260200164514944554f60d81b8152506040518060400160405280600381526020016214525160ea1b815250816003908161005a9190610302565b5060046100678282610302565b5050506001600160a01b03811661009857604051631e4fbdf760e01b81525f60048201526024015b60405180910390fd5b6100a1816100bb565b506100b63369021e19e0c9bab240000061010c565b6103e1565b600580546001600160a01b038381166001600160a01b0319831681179093556040519116919082907f8be0079c531659141344cd1fd0a4f28419497f9722a3daafe3b4186f6b6457e0905f90a35050565b6001600160a01b0382166101355760405163ec442f0560e01b81525f600482015260240161008f565b6101405f8383610144565b5050565b6001600160a01b03831661016e578060025f82825461016391906103bc565b909155506101de9050565b6001600160a01b0383165f90815260208190526040902054818110156101c05760405163391434e360e21b81526001600160a01b0385166004820152602481018290526044810183905260640161008f565b6001600160a01b0384165f9081526020819052604090209082900390555b6001600160a01b0382166101fa57600280548290039055610218565b6001600160a01b0382165f9081526020819052604090208054820190555b816001600160a01b0316836001600160a01b03167fddf252ad1be2c89b69c2b068fc378daa952ba7f163c4a11628f55a4df523b3ef8360405161025d91815260200190565b60405180910390a3505050565b634e487b7160e01b5f52604160045260245ffd5b600181811c9082168061029257607f821691505b6020821081036102b057634e487b7160e01b5f52602260045260245ffd5b50919050565b601f8211156102fd57805f5260205f20601f840160051c810160208510156102db5750805b601f840160051c820191505b818110156102fa575f81556001016102e7565b50505b505050565b81516001600160401b0381111561031b5761031b61026a565b61032f81610329845461027e565b846102b6565b6020601f821160018114610361575f831561034a5750848201515b5f19600385901b1c1916600184901b1784556102fa565b5f84815260208120601f198516915b828110156103905787850151825560209485019460019092019101610370565b50848210156103ad57868401515f19600387901b60f8161c191681555b50505050600190811b01905550565b808201808211156103db57634e487b7160e01b5f52601160045260245ffd5b92915050565b610994806103ee5f395ff3fe608060405234801561000f575f5ffd5b50600436106100fb575f3560e01c8063715018a61161009357806395d89b411161006357806395d89b411461020b578063a9059cbb14610213578063dd62ed3e14610226578063f2fde38b1461025e575f5ffd5b8063715018a6146101b557806373b2e80e146101bd5780638da5cb5b146101df578063902d55a5146101fa575f5ffd5b8063270ef385116100ce578063270ef38514610165578063313ce567146101745780634e71d92d1461018357806370a082311461018d575f5ffd5b806306fdde03146100ff578063095ea7b31461011d57806318160ddd1461014057806323b872dd14610152575b5f5ffd5b610107610271565b6040516101149190610804565b60405180910390f35b61013061012b366004610854565b610301565b6040519015158152602001610114565b6002545b604051908152602001610114565b61013061016036600461087c565b61031a565b610144678ac7230489e8000081565b60405160128152602001610114565b61018b61033d565b005b61014461019b3660046108b6565b6001600160a01b03165f9081526020819052604090205490565b61018b610439565b6101306101cb3660046108b6565b60066020525f908152604090205460ff1681565b6005546040516001600160a01b039091168152602001610114565b61014469021e19e0c9bab240000081565b61010761044a565b610130610221366004610854565b610459565b6101446102343660046108d6565b6001600160a01b039182165f90815260016020908152604080832093909416825291909152205490565b61018b61026c3660046108b6565b610466565b60606003805461028090610907565b80601f01602080910402602001604051908101604052809291908181526020018280546102ac90610907565b80156102f75780601f106102ce576101008083540402835291602001916102f7565b820191905f5260205f20905b8154815290600101906020018083116102da57829003601f168201915b5050505050905090565b5f3361030e8185856104a3565b60019150505b92915050565b5f336103278582856104b5565b610332858585610531565b506001949350505050565b335f9081526006602052604090205460ff16156103a15760405162461bcd60e51b815260206004820152601860248201527f596f75206861766520616c726561647920636c61696d6564000000000000000060448201526064015b60405180910390fd5b33316103fa5760405162461bcd60e51b815260206004820152602260248201527f596f75206d75737420686f6c64205365706f6c69612045544820746f20636c61604482015261696d60f01b6064820152608401610398565b335f908152600660205260409020805460ff191660011790556104376104286005546001600160a01b031690565b33678ac7230489e80000610531565b565b61044161058e565b6104375f6105bb565b60606004805461028090610907565b5f3361030e818585610531565b61046e61058e565b6001600160a01b03811661049757604051631e4fbdf760e01b81525f6004820152602401610398565b6104a0816105bb565b50565b6104b0838383600161060c565b505050565b6001600160a01b038381165f908152600160209081526040808320938616835292905220545f1981101561052b578181101561051d57604051637dc7a0d960e11b81526001600160a01b03841660048201526024810182905260448101839052606401610398565b61052b84848484035f61060c565b50505050565b6001600160a01b03831661055a57604051634b637e8f60e11b81525f6004820152602401610398565b6001600160a01b0382166105835760405163ec442f0560e01b81525f6004820152602401610398565b6104b08383836106de565b6005546001600160a01b031633146104375760405163118cdaa760e01b8152336004820152602401610398565b600580546001600160a01b038381166001600160a01b0319831681179093556040519116919082907f8be0079c531659141344cd1fd0a4f28419497f9722a3daafe3b4186f6b6457e0905f90a35050565b6001600160a01b0384166106355760405163e602df0560e01b81525f6004820152602401610398565b6001600160a01b03831661065e57604051634a1406b160e11b81525f6004820152602401610398565b6001600160a01b038085165f908152600160209081526040808320938716835292905220829055801561052b57826001600160a01b0316846001600160a01b03167f8c5be1e5ebec7d5bd14f71427d1e84f3dd0314c0f7b2291e5b200ac8c7c3b925846040516106d091815260200190565b60405180910390a350505050565b6001600160a01b038316610708578060025f8282546106fd919061093f565b909155506107789050565b6001600160a01b0383165f908152602081905260409020548181101561075a5760405163391434e360e21b81526001600160a01b03851660048201526024810182905260448101839052606401610398565b6001600160a01b0384165f9081526020819052604090209082900390555b6001600160a01b038216610794576002805482900390556107b2565b6001600160a01b0382165f9081526020819052604090208054820190555b816001600160a01b0316836001600160a01b03167fddf252ad1be2c89b69c2b068fc378daa952ba7f163c4a11628f55a4df523b3ef836040516107f791815260200190565b60405180910390a3505050565b602081525f82518060208401528060208501604085015e5f604082850101526040601f19601f83011684010191505092915050565b80356001600160a01b038116811461084f575f5ffd5b919050565b5f5f60408385031215610865575f5ffd5b61086e83610839565b946020939093013593505050565b5f5f5f6060848603121561088e575f5ffd5b61089784610839565b92506108a560208501610839565b929592945050506040919091013590565b5f602082840312156108c6575f5ffd5b6108cf82610839565b9392505050565b5f5f604083850312156108e7575f5ffd5b6108f083610839565b91506108fe60208401610839565b90509250929050565b600181811c9082168061091b57607f821691505b60208210810361093957634e487b7160e01b5f52602260045260245ffd5b50919050565b8082018082111561031457634e487b7160e01b5f52601160045260245ffdfea2646970667358221220c1373886a2e2bcfcd9d6125e90b58a81b10645eaf80f34e765ecd85a8f07d9e764736f6c634300081e0033","linkReferences":{}},"methodIdentifiers":{"CLAIM_AMOUNT()":"270ef385","TOTAL_SUPPLY()":"902d55a5","allowance(address,address)":"dd62ed3e","approve(address,uint256)":"095ea7b3","balanceOf(address)":"70a08231","claim()":"4e71d92d","decimals()":"313ce567","hasClaimed(address)":"73b2e80e","name()":"06fdde03","owner()":"8da5cb5b","renounceOwnership()":"715018a6","symbol()":"95d89b41","totalSupply()":"18160ddd","transfer(address,uint256)":"a9059cbb","transferFrom(address,address,uint256)":"23b872dd","transferOwnership(address)":"f2fde38b"},"id":21}