{"abi":[{"type":"constructor","inputs":[],"stateMutability":"nonpayable"},{"type":"function","name":"CLAIM_AMOUNT","inputs":[],"outputs":[{"name":"","type":"uint256","internalType":"uint256"}],"stateMutability":"view"},{"type":"function","name":"MAX_CLAIMS","inputs":[],"outputs":[{"name":"","type":"uint16","internalType":"uint16"}],"stateMutability":"view"},{"type":"function","name":"MAX_TOTAL_SUPPLY","inputs":[],"outputs":[{"name":"","type":"uint256","internalType":"uint256"}],"stateMutability":"view"},{"type":"function","name":"MIN_ETH_REQUIRED","inputs":[],"outputs":[{"name":"","type":"uint256","internalType":"uint256"}],"stateMutability":"view"},{"type":"function","name":"allTokensClaimed","inputs":[],"outputs":[{"name":"","type":"bool","internalType":"bool"}],"stateMutability":"view"},{"type":"function","name":"allowance","inputs":[{"name":"owner","type":"address","internalType":"address"},{"name":"spender","type":"address","internalType":"address"}],"outputs":[{"name":"","type":"uint256","internalType":"uint256"}],"stateMutability":"view"},{"type":"function","name":"approve","inputs":[{"name":"spender","type":"address","internalType":"address"},{"name":"value","type":"uint256","internalType":"uint256"}],"outputs":[{"name":"","type":"bool","internalType":"bool"}],"stateMutability":"nonpayable"},{"type":"function","name":"balanceOf","inputs":[{"name":"account","type":"address","internalType":"address"}],"outputs":[{"name":"","type":"uint256","internalType":"uint256"}],"stateMutability":"view"},{"type":"function","name":"claim","inputs":[],"outputs":[],"stateMutability":"nonpayable"},{"type":"function","name":"claimCount","inputs":[],"outputs":[{"name":"","type":"uint16","internalType":"uint16"}],"stateMutability":"view"},{"type":"function","name":"decimals","inputs":[],"outputs":[{"name":"","type":"uint8","internalType":"uint8"}],"stateMutability":"view"},{"type":"function","name":"hasClaimed","inputs":[{"name":"","type":"address","internalType":"address"}],"outputs":[{"name":"","type":"bool","internalType":"bool"}],"stateMutability":"view"},{"type":"function","name":"isEligible","inputs":[{"name":"account","type":"address","internalType":"address"}],"outputs":[{"name":"","type":"bool","internalType":"bool"}],"stateMutability":"view"},{"type":"function","name":"maxTotalSupply","inputs":[],"outputs":[{"name":"","type":"uint256","internalType":"uint256"}],"stateMutability":"pure"},{"type":"function","name":"minETHRequired","inputs":[],"outputs":[{"name":"","type":"uint256","internalType":"uint256"}],"stateMutability":"pure"},{"type":"function","name":"name","inputs":[],"outputs":[{"name":"","type":"string","internalType":"string"}],"stateMutability":"view"},{"type":"function","name":"owner","inputs":[],"outputs":[{"name":"","type":"address","internalType":"address"}],"stateMutability":"view"},{"type":"function","name":"remainingClaims","inputs":[],"outputs":[{"name":"","type":"uint16","internalType":"uint16"}],"stateMutability":"view"},{"type":"function","name":"symbol","inputs":[],"outputs":[{"name":"","type":"string","internalType":"string"}],"stateMutability":"view"},{"type":"function","name":"totalSupply","inputs":[],"outputs":[{"name":"","type":"uint256","internalType":"uint256"}],"stateMutability":"view"},{"type":"function","name":"transfer","inputs":[{"name":"to","type":"address","internalType":"address"},{"name":"value","type":"uint256","internalType":"uint256"}],"outputs":[{"name":"","type":"bool","internalType":"bool"}],"stateMutability":"nonpayable"},{"type":"function","name":"transferFrom","inputs":[{"name":"from","type":"address","internalType":"address"},{"name":"to","type":"address","internalType":"address"},{"name":"value","type":"uint256","internalType":"uint256"}],"outputs":[{"name":"","type":"bool","internalType":"bool"}],"stateMutability":"nonpayable"},{"type":"event","name":"Approval","inputs":[{"name":"owner","type":"address","indexed":true,"internalType":"address"},{"name":"spender","type":"address","indexed":true,"internalType":"address"},{"name":"value","type":"uint256","indexed":false,"internalType":"uint256"}],"anonymous":false},{"type":"event","name":"Transfer","inputs":[{"name":"from","type":"address","indexed":true,"internalType":"address"},{"name":"to","type":"address","indexed":true,"internalType":"address"},{"name":"value","type":"uint256","indexed":false,"internalType":"uint256"}],"anonymous":false},{"type":"error","name":"AlreadyClaimed","inputs":[]},{"type":"error","name":"ERC20InsufficientAllowance","inputs":[{"name":"spender","type":"address","internalType":"address"},{"name":"allowance","type":"uint256","internalType":"uint256"},{"name":"needed","type":"uint256","internalType":"uint256"}]},{"type":"error","name":"ERC20InsufficientBalance","inputs":[{"name":"sender","type":"address","internalType":"address"},{"name":"balance","type":"uint256","internalType":"uint256"},{"name":"needed","type":"uint256","internalType":"uint256"}]},{"type":"error","name":"ERC20InvalidApprover","inputs":[{"name":"approver","type":"address","internalType":"address"}]},{"type":"error","name":"ERC20InvalidReceiver","inputs":[{"name":"receiver","type":"address","internalType":"address"}]},{"type":"error","name":"ERC20InvalidSender","inputs":[{"name":"sender","type":"address","internalType":"address"}]},{"type":"error","name":"ERC20InvalidSpender","inputs":[{"name":"spender","type":"address","internalType":"address"}]},{"type":"error","name":"ExceedsMaxClaims","inputs":[]},{"type":"error","name":"NoSepoliaETH","inputs":[]}],"bytecode":{"object":"0x60a060405234801561000f575f5ffd5b506040518060400160405280600781526020016643686565746f7360c81b8152506040518060400160405280600381526020016243484560e81b815250816003908161005b919061010c565b506004610068828261010c565b505033608052506101c6565b634e487b7160e01b5f52604160045260245ffd5b600181811c9082168061009c57607f821691505b6020821081036100ba57634e487b7160e01b5f52602260045260245ffd5b50919050565b601f82111561010757805f5260205f20601f840160051c810160208510156100e55750805b601f840160051c820191505b81811015610104575f81556001016100f1565b50505b505050565b81516001600160401b0381111561012557610125610074565b610139816101338454610088565b846100c0565b6020601f82116001811461016b575f83156101545750848201515b5f19600385901b1c1916600184901b178455610104565b5f84815260208120601f198516915b8281101561019a578785015182556020948501946001909201910161017a565b50848210156101b757868401515f19600387901b60f8161c191681555b50505050600190811b01905550565b608051610a8b6101de5f395f6102a50152610a8b5ff3fe608060405234801561000f575f5ffd5b506004361061013d575f3560e01c8063530ecbfa116100b45780638da5cb5b116100795780638da5cb5b146102a057806395d89b41146102df578063a9059cbb146102e7578063c5c1a495146102fa578063cf62ba9214610307578063dd62ed3e1461030f575f5ffd5b8063530ecbfa1461021357806366e305fd1461022157806370a082311461024857806373b2e80e146102705780638da4d3c914610292575f5ffd5b8063270ef38511610105578063270ef385146101c25780632ab4d052146101d1578063313ce567146101e157806333039d3d146101f057806344f99e18146102015780634e71d92d14610209575f5ffd5b806306fdde0314610141578063095ea7b31461015f57806309a8c9e91461018257806318160ddd1461019d57806323b872dd146101af575b5f5ffd5b610149610347565b60405161015691906108ba565b60405180910390f35b61017261016d36600461090a565b6103d7565b6040519015158152602001610156565b61018a6103f0565b60405161ffff9091168152602001610156565b6002545b604051908152602001610156565b6101726101bd366004610932565b610424565b6101a1678ac7230489e8000081565b69021e19e0c9bab24000006101a1565b60405160128152602001610156565b6101a169021e19e0c9bab240000081565b610172610447565b610211610476565b005b6101a1662386f26fc1000081565b61017261022f36600461096c565b662386f26fc100006001600160a01b0390911631101590565b6101a161025636600461096c565b6001600160a01b03165f9081526020819052604090205490565b61017261027e36600461096c565b60056020525f908152604090205460ff1681565b60065461018a9061ffff1681565b6102c77f000000000000000000000000000000000000000000000000000000000000000081565b6040516001600160a01b039091168152602001610156565b61014961055f565b6101726102f536600461090a565b61056e565b662386f26fc100006101a1565b61018a61057b565b6101a161031d36600461098c565b6001600160a01b039182165f90815260016020908152604080832093909416825291909152205490565b606060038054610356906109bd565b80601f0160208091040260200160405190810160405280929190818152602001828054610382906109bd565b80156103cd5780601f106103a4576101008083540402835291602001916103cd565b820191905f5260205f20905b8154815290600101906020018083116103b057829003601f168201915b5050505050905090565b5f336103e481858561059a565b60019150505b92915050565b6006545f9061ffff16610415678ac7230489e8000069021e19e0c9bab2400000610a09565b61041f9190610a28565b905090565b5f336104318582856105ac565b61043c85858561062d565b506001949350505050565b5f610464678ac7230489e8000069021e19e0c9bab2400000610a09565b60065461ffff91821691161015919050565b335f9081526005602052604090205460ff16156104a657604051630c8d9eab60e31b815260040160405180910390fd5b6104c2678ac7230489e8000069021e19e0c9bab2400000610a09565b60065461ffff9182169116106104eb5760405163e38a9e8160e01b815260040160405180910390fd5b662386f26fc10000333110156105145760405163e065198b60e01b815260040160405180910390fd5b335f8181526005602052604090208054600160ff1990911681179091556006805461ffff19811661ffff9182169093011691909117905561055d90678ac7230489e8000061068a565b565b606060048054610356906109bd565b5f336103e481858561062d565b610597678ac7230489e8000069021e19e0c9bab2400000610a09565b81565b6105a783838360016106c2565b505050565b6001600160a01b038381165f908152600160209081526040808320938616835292905220545f19811015610627578181101561061957604051637dc7a0d960e11b81526001600160a01b038416600482015260248101829052604481018390526064015b60405180910390fd5b61062784848484035f6106c2565b50505050565b6001600160a01b03831661065657604051634b637e8f60e11b81525f6004820152602401610610565b6001600160a01b03821661067f5760405163ec442f0560e01b81525f6004820152602401610610565b6105a7838383610794565b6001600160a01b0382166106b35760405163ec442f0560e01b81525f6004820152602401610610565b6106be5f8383610794565b5050565b6001600160a01b0384166106eb5760405163e602df0560e01b81525f6004820152602401610610565b6001600160a01b03831661071457604051634a1406b160e11b81525f6004820152602401610610565b6001600160a01b038085165f908152600160209081526040808320938716835292905220829055801561062757826001600160a01b0316846001600160a01b03167f8c5be1e5ebec7d5bd14f71427d1e84f3dd0314c0f7b2291e5b200ac8c7c3b9258460405161078691815260200190565b60405180910390a350505050565b6001600160a01b0383166107be578060025f8282546107b39190610a42565b9091555061082e9050565b6001600160a01b0383165f90815260208190526040902054818110156108105760405163391434e360e21b81526001600160a01b03851660048201526024810182905260448101839052606401610610565b6001600160a01b0384165f9081526020819052604090209082900390555b6001600160a01b03821661084a57600280548290039055610868565b6001600160a01b0382165f9081526020819052604090208054820190555b816001600160a01b0316836001600160a01b03167fddf252ad1be2c89b69c2b068fc378daa952ba7f163c4a11628f55a4df523b3ef836040516108ad91815260200190565b60405180910390a3505050565b602081525f82518060208401528060208501604085015e5f604082850101526040601f19601f83011684010191505092915050565b80356001600160a01b0381168114610905575f5ffd5b919050565b5f5f6040838503121561091b575f5ffd5b610924836108ef565b946020939093013593505050565b5f5f5f60608486031215610944575f5ffd5b61094d846108ef565b925061095b602085016108ef565b929592945050506040919091013590565b5f6020828403121561097c575f5ffd5b610985826108ef565b9392505050565b5f5f6040838503121561099d575f5ffd5b6109a6836108ef565b91506109b4602084016108ef565b90509250929050565b600181811c908216806109d157607f821691505b6020821081036109ef57634e487b7160e01b5f52602260045260245ffd5b50919050565b634e487b7160e01b5f52601160045260245ffd5b5f82610a2357634e487b7160e01b5f52601260045260245ffd5b500490565b61ffff82811682821603908111156103ea576103ea6109f5565b808201808211156103ea576103ea6109f556fea26469706673582212201552a6279b76d1ab86cb81d156b9dae92f13ffc601d5c6ea9517ad1956fe39d664736f6c634300081e0033","linkReferences":{}},"methodIdentifiers":{"CLAIM_AMOUNT()":"270ef385","MAX_CLAIMS()":"cf62ba92","MAX_TOTAL_SUPPLY()":"33039d3d","MIN_ETH_REQUIRED()":"530ecbfa","allTokensClaimed()":"44f99e18","allowance(address,address)":"dd62ed3e","approve(address,uint256)":"095ea7b3","balanceOf(address)":"70a08231","claim()":"4e71d92d","claimCount()":"8da4d3c9","decimals()":"313ce567","hasClaimed(address)":"73b2e80e","isEligible(address)":"66e305fd","maxTotalSupply()":"2ab4d052","minETHRequired()":"c5c1a495","name()":"06fdde03","owner()":"8da5cb5b","remainingClaims()":"09a8c9e9","symbol()":"95d89b41","totalSupply()":"18160ddd","transfer(address,uint256)":"a9059cbb","transferFrom(address,address,uint256)":"23b872dd"},"id":27}